{
  "contractName": "HashForEther",
  "abi": [
    {
      "constant": false,
      "inputs": [],
      "name": "withdrawWinnings",
      "outputs": [],
      "payable": false,
      "stateMutability": "nonpayable",
      "type": "function"
    },
    {
      "constant": false,
      "inputs": [],
      "name": "a",
      "outputs": [],
      "payable": true,
      "stateMutability": "payable",
      "type": "function"
    }
  ],
  "bytecode": "0x608060405234801561001057600080fd5b50610188806100206000396000f30060806040526004361061004c576000357c0100000000000000000000000000000000000000000000000000000000900463ffffffff1680630dbe671f14610051578063cc42e83a1461005b575b600080fd5b610059610072565b005b34801561006757600080fd5b50610070610074565b005b565b60003363ffffffff161415156100f2576040517f08c379a000000000000000000000000000000000000000000000000000000000815260040180806020018281038252601c8152602001807f6d73672e73656e646572206e6f7420386865782030303030303030300000000081525060200191505060405180910390fd5b6100fa6100fc565b565b3373ffffffffffffffffffffffffffffffffffffffff166108fc3073ffffffffffffffffffffffffffffffffffffffff16319081150290604051600060405180830381858888f19350505050158015610159573d6000803e3d6000fd5b505600a165627a7a72305820fd2a44f4371bf478efd7b9394bf1ec1d34f9721fba61a1830091ab6487de045c0029",
  "source": "// SPDX-License-Identifier: MIT\r\npragma solidity >=0.4.22 <0.9.0;\r\n\r\ncontract HashForEther {\r\n    //x = account[9]\r\n    //address x = 0x14736bB05D262E93873ee42eE4AEe3323c3b2c46;\r\n    function withdrawWinnings() public {\r\n        // Winner if the last 8 hex characters of the address are 0. \r\n        require(uint32(msg.sender) == 0,\r\n        \"msg.sender not 8hex 00000000\");\r\n        \r\n        _sendWinnings();\r\n     }\r\n\r\n     function _sendWinnings() internal {    \r\n        msg.sender.transfer(this.balance);\r\n     }\r\n\r\n     function a() payable{}\r\n}",
  "sourcePath": "C:/Users/vlfgh/OneDrive/Desktop/STL/web3_test/contracts/swc100.sol",
  "compiler": {
    "name": "solc",
    "version": "0.4.24+commit.e67f0147.Emscripten.clang"
  },
  "schemaVersion": "3.4.1",
  "updatedAt": "2021-07-30T12:06:00.244Z",
  "networkType": "ethereum",
  "devdoc": {
    "methods": {}
  },
  "userdoc": {
    "methods": {}
  }
}